{
  "_format": "hh-sol-artifact-1",
  "contractName": "Voting",
  "sourceName": "contracts/Voting.sol",
  "abi": [
    {
      "inputs": [],
      "stateMutability": "nonpayable",
      "type": "constructor"
    },
    {
      "inputs": [
        {
          "internalType": "string",
          "name": "_name",
          "type": "string"
        }
      ],
      "name": "addProposal",
      "outputs": [],
      "stateMutability": "nonpayable",
      "type": "function"
    },
    {
      "inputs": [],
      "name": "getChairPerson",
      "outputs": [
        {
          "internalType": "address",
          "name": "",
          "type": "address"
        }
      ],
      "stateMutability": "view",
      "type": "function"
    },
    {
      "inputs": [],
      "name": "getInfoProposals",
      "outputs": [
        {
          "components": [
            {
              "internalType": "string",
              "name": "name",
              "type": "string"
            },
            {
              "internalType": "uint256",
              "name": "votesCount",
              "type": "uint256"
            }
          ],
          "internalType": "struct Voting.Proposal[]",
          "name": "",
          "type": "tuple[]"
        }
      ],
      "stateMutability": "view",
      "type": "function"
    },
    {
      "inputs": [],
      "name": "getProposals",
      "outputs": [
        {
          "internalType": "uint256",
          "name": "",
          "type": "uint256"
        }
      ],
      "stateMutability": "view",
      "type": "function"
    },
    {
      "inputs": [
        {
          "internalType": "uint256",
          "name": "index",
          "type": "uint256"
        }
      ],
      "name": "getVotesById",
      "outputs": [
        {
          "internalType": "uint256",
          "name": "",
          "type": "uint256"
        }
      ],
      "stateMutability": "view",
      "type": "function"
    },
    {
      "inputs": [
        {
          "internalType": "uint256",
          "name": "",
          "type": "uint256"
        }
      ],
      "name": "proposals",
      "outputs": [
        {
          "internalType": "string",
          "name": "name",
          "type": "string"
        },
        {
          "internalType": "uint256",
          "name": "votesCount",
          "type": "uint256"
        }
      ],
      "stateMutability": "view",
      "type": "function"
    },
    {
      "inputs": [
        {
          "internalType": "uint32",
          "name": "index",
          "type": "uint32"
        }
      ],
      "name": "vote",
      "outputs": [],
      "stateMutability": "nonpayable",
      "type": "function"
    },
    {
      "inputs": [
        {
          "internalType": "address",
          "name": "",
          "type": "address"
        }
      ],
      "name": "voters",
      "outputs": [
        {
          "internalType": "bool",
          "name": "voted",
          "type": "bool"
        },
        {
          "internalType": "uint256",
          "name": "vote",
          "type": "uint256"
        }
      ],
      "stateMutability": "view",
      "type": "function"
    }
  ],
  "bytecode": "0x608060405234801561001057600080fd5b5033600160006101000a81548173ffffffffffffffffffffffffffffffffffffffff021916908373ffffffffffffffffffffffffffffffffffffffff160217905550610ee3806100616000396000f3fe608060405234801561001057600080fd5b50600436106100885760003560e01c806362564c481161005b57806362564c48146101285780639094c763146101465780639e7e2b0914610162578063a3ec138d1461018057610088565b8063013cf08b1461008d57806302e866f4146100be5780632c3fc622146100dc5780632fdae3c51461010c575b600080fd5b6100a760048036038101906100a29190610846565b6101b1565b6040516100b5929190610ab8565b60405180910390f35b6100c661026d565b6040516100d39190610a6d565b60405180910390f35b6100f660048036038101906100f19190610846565b610368565b6040516101039190610b28565b60405180910390f35b61012660048036038101906101219190610805565b6103bc565b005b6101306104b9565b60405161013d9190610b28565b60405180910390f35b610160600480360381019061015b919061086f565b6104c5565b005b61016a610637565b6040516101779190610a52565b60405180910390f35b61019a600480360381019061019591906107dc565b610661565b6040516101a8929190610a8f565b60405180910390f35b600081815481106101c157600080fd5b90600052602060002090600202016000915090508060000180546101e490610cef565b80601f016020809104026020016040519081016040528092919081815260200182805461021090610cef565b801561025d5780601f106102325761010080835404028352916020019161025d565b820191906000526020600020905b81548152906001019060200180831161024057829003601f168201915b5050505050908060010154905082565b60606000805480602002602001604051908101604052809291908181526020016000905b8282101561035f57838290600052602060002090600202016040518060400160405290816000820180546102c490610cef565b80601f01602080910402602001604051908101604052809291908181526020018280546102f090610cef565b801561033d5780601f106103125761010080835404028352916020019161033d565b820191906000526020600020905b81548152906001019060200180831161032057829003601f168201915b5050505050815260200160018201548152505081526020019060010190610291565b50505050905090565b60008082815481106103a3577f4e487b7100000000000000000000000000000000000000000000000000000000600052603260045260246000fd5b9060005260206000209060020201600101549050919050565b600160009054906101000a900473ffffffffffffffffffffffffffffffffffffffff1673ffffffffffffffffffffffffffffffffffffffff163373ffffffffffffffffffffffffffffffffffffffff161461044c576040517f08c379a000000000000000000000000000000000000000000000000000000000815260040161044390610b08565b60405180910390fd5b600060405180604001604052808381526020016000815250908060018154018082558091505060019003906000526020600020906002020160009091909190915060008201518160000190805190602001906104a9929190610692565b5060208201518160010155505050565b60008080549050905090565b6000600260003373ffffffffffffffffffffffffffffffffffffffff1673ffffffffffffffffffffffffffffffffffffffff16815260200190815260200160002090508060000160009054906101000a900460ff161561055a576040517f08c379a000000000000000000000000000000000000000000000000000000000815260040161055190610ae8565b60405180910390fd5b6000600260003373ffffffffffffffffffffffffffffffffffffffff1673ffffffffffffffffffffffffffffffffffffffff1681526020019081526020016000209050600160008463ffffffff16815481106105df577f4e487b7100000000000000000000000000000000000000000000000000000000600052603260045260246000fd5b906000526020600020906002020160010160008282546105ff9190610bff565b9250508190555060018160000160006101000a81548160ff0219169083151502179055508263ffffffff168160010181905550505050565b6000600160009054906101000a900473ffffffffffffffffffffffffffffffffffffffff16905090565b60026020528060005260406000206000915090508060000160009054906101000a900460ff16908060010154905082565b82805461069e90610cef565b90600052602060002090601f0160209004810192826106c05760008555610707565b82601f106106d957805160ff1916838001178555610707565b82800160010185558215610707579182015b828111156107065782518255916020019190600101906106eb565b5b5090506107149190610718565b5090565b5b80821115610731576000816000905550600101610719565b5090565b600061074861074384610b68565b610b43565b90508281526020810184848401111561076057600080fd5b61076b848285610cad565b509392505050565b60008135905061078281610e68565b92915050565b600082601f83011261079957600080fd5b81356107a9848260208601610735565b91505092915050565b6000813590506107c181610e7f565b92915050565b6000813590506107d681610e96565b92915050565b6000602082840312156107ee57600080fd5b60006107fc84828501610773565b91505092915050565b60006020828403121561081757600080fd5b600082013567ffffffffffffffff81111561083157600080fd5b61083d84828501610788565b91505092915050565b60006020828403121561085857600080fd5b6000610866848285016107b2565b91505092915050565b60006020828403121561088157600080fd5b600061088f848285016107c7565b91505092915050565b60006108a483836109f7565b905092915050565b6108b581610c55565b82525050565b60006108c682610ba9565b6108d08185610bcc565b9350836020820285016108e285610b99565b8060005b8581101561091e57848403895281516108ff8582610898565b945061090a83610bbf565b925060208a019950506001810190506108e6565b50829750879550505050505092915050565b61093981610c67565b82525050565b600061094a82610bb4565b6109548185610bdd565b9350610964818560208601610cbc565b61096d81610ddf565b840191505092915050565b600061098382610bb4565b61098d8185610bee565b935061099d818560208601610cbc565b6109a681610ddf565b840191505092915050565b60006109be601083610bee565b91506109c982610df0565b602082019050919050565b60006109e1603583610bee565b91506109ec82610e19565b604082019050919050565b60006040830160008301518482036000860152610a14828261093f565b9150506020830151610a296020860182610a34565b508091505092915050565b610a3d81610c93565b82525050565b610a4c81610c93565b82525050565b6000602082019050610a6760008301846108ac565b92915050565b60006020820190508181036000830152610a8781846108bb565b905092915050565b6000604082019050610aa46000830185610930565b610ab16020830184610a43565b9392505050565b60006040820190508181036000830152610ad28185610978565b9050610ae16020830184610a43565b9392505050565b60006020820190508181036000830152610b01816109b1565b9050919050565b60006020820190508181036000830152610b21816109d4565b9050919050565b6000602082019050610b3d6000830184610a43565b92915050565b6000610b4d610b5e565b9050610b598282610d21565b919050565b6000604051905090565b600067ffffffffffffffff821115610b8357610b82610db0565b5b610b8c82610ddf565b9050602081019050919050565b6000819050602082019050919050565b600081519050919050565b600081519050919050565b6000602082019050919050565b600082825260208201905092915050565b600082825260208201905092915050565b600082825260208201905092915050565b6000610c0a82610c93565b9150610c1583610c93565b9250827fffffffffffffffffffffffffffffffffffffffffffffffffffffffffffffffff03821115610c4a57610c49610d52565b5b828201905092915050565b6000610c6082610c73565b9050919050565b60008115159050919050565b600073ffffffffffffffffffffffffffffffffffffffff82169050919050565b6000819050919050565b600063ffffffff82169050919050565b82818337600083830152505050565b60005b83811015610cda578082015181840152602081019050610cbf565b83811115610ce9576000848401525b50505050565b60006002820490506001821680610d0757607f821691505b60208210811415610d1b57610d1a610d81565b5b50919050565b610d2a82610ddf565b810181811067ffffffffffffffff82111715610d4957610d48610db0565b5b80604052505050565b7f4e487b7100000000000000000000000000000000000000000000000000000000600052601160045260246000fd5b7f4e487b7100000000000000000000000000000000000000000000000000000000600052602260045260246000fd5b7f4e487b7100000000000000000000000000000000000000000000000000000000600052604160045260246000fd5b6000601f19601f8301169050919050565b7f796f7520616c7265647920766f74656400000000000000000000000000000000600082015250565b7f7468652063616c6c6572206f6620746869732066756e6374696f6e206d75737460008201527f206265207468652061646d696e6973747261746f720000000000000000000000602082015250565b610e7181610c55565b8114610e7c57600080fd5b50565b610e8881610c93565b8114610e9357600080fd5b50565b610e9f81610c9d565b8114610eaa57600080fd5b5056fea2646970667358221220508a61dca82ed38006cf2770dd5fadca0d12a7b69ba42ed5f84eeabe2740761464736f6c63430008040033",
  "linkReferences": {},
  "deployedLinkReferences": {}
}